S00C00006D61696E2E7372656373
S11300000EC028C027C026C025C024C023C022C0DB
S113001021C020C030C01EC01DC01CC01BC0112484
S11300201FBECFE5D2E0DEBFCDBF10E0A0E6B0E05A
S1130030E6ECF0E002C005900D92A236B107D9F7C4
S113004020E0A2E6B0E001C01D92A336B207E1F7BA
S113005002D037C0D5CFF894B89A8AB582628ABDE7
S113006083B7856083BF8DE489BD18BC89B782607E
S113007089BF7894FFCF1F920F920FB60F9211246D
S11300808F939F939091600080916200890F809379
S1130090620080916200882329F099B58091620002
S11300A0891728F080916000819580936000809189
S11300B0620088BD9F918F910F900FBE0F901F908B
S10900C01895F894FFCF2F
S10500C6010033
S9030000FC
