:100000000EC028C027C026C025C03AC023C022C0C9
:1000100021C020C01FC01EC01DC01CC01BC0112499
:100020001FBECFE5D2E0DEBFCDBF10E0A0E6B0E05E
:10003000E2EAF1E002C005900D92A236B107D9F7CD
:1000400020E0A2E6B0E001C01D92A336B207E1F7BE
:1000500002D0A5C0D5CFB99A8AB583608ABD8AB5CA
:1000600080628ABD83B7886083BF83B7856083BFA2
:1000700083E089BD18BC89B7826089BF7894FFCFBF
:100080001F920F920FB60F9211242F933F935F93FD
:100090006F937F938F939F93AF93BF93EF93FF9350
:1000A0009091600080916200890F8093620080913E
:1000B00062008823E9F0E091620069B5F0E070E049
:1000C0008FEF90E045D0CB0182959295907F982755
:1000D000807F9827861B970B9C0122953295307F55
:1000E0003227207F3227820F931FE817F9072CF061
:1000F0008091600081958093600089B56091620075
:1001000070E090E014D06FEF70E022D068BDFF91F6
:10011000EF91BF91AF919F918F917F916F915F917F
:100120003F912F910F900FBE0F901F9018950024B4
:10013000552704C0080E591F880F991F009729F0F2
:1001400076956795B8F37105B9F7802D952F0895C9
:1001500097FB072E16F4009406D077FD08D00BD03D
:1001600007FC05D03EF4909581959F4F08957095BA
:1001700061957F4F0895AA1BBB1B51E107C0AA1FC1
:10018000BB1FA617B70710F0A61BB70B881F991F38
:100190005A95A9F780959095BC01CD010895F894E2
:0201A000FFCF8F
:0201A20001005A
:00000001FF
