:100000000EC028C027C026C025C034C023C022C0CF
:1000100021C020C01FC01EC01DC01CC01BC0112499
:100020001FBECFE5D2E0DEBFCDBF10E0A0E6B0E05E
:10003000E2ECF0E002C005900D92A236B107D9F7CC
:1000400020E0A2E6B0E001C01D92A336B207E1F7BE
:1000500002D035C0D5CFB89A8AB583608ABD8AB53B
:1000600080688ABD83B7826083BF89B7826089BF99
:100070007894FFCF1F920F920FB60F9211248F9397
:100080009F939091600080916200890F809362003D
:1000900080916200882321F0809162008F3F29F4D3
:1000A000809160008195809360008091620089BD9D
:1000B0009F918F910F900FBE0F901F901895F894FD
:0200C000FFCF70
:0200C20001003B
:00000001FF
